:0200000280007C
:10000000C02C00208502080081020800810208003F
:10001000810208008102080081020800000000003F
:100020000000000000000000000000008102080045
:10003000810208000000000081020800D9100800B9
:100040008102080081020800810208008102080084
:100050008102080081020800810208008102080074
:1000600081020800810208002925080039250800BE
:100070008102080081020800810208008102080054
:100080008102080081020800810208008102080044
:100090008102080081020800B107080081020800FF
:1000A0008102080081020800810208001512080080
:1000B00081020800F52C08008102080010B5054CEB
:1000C000237833B9044B13B10448AFF30080012304
:1000D000237010BD0406002000000000303C080022
:1000E0000C4B43B10C4810B50C49AFF300800C48E1
:1000F000036823B910BD0A48036833B97047094B38
:10010000002BF7D0BDE810401847064B002BF5D068
:10011000184700BF00000000303C0800080600201F
:10012000303C08000000000010B50224890143188B
:1001300044504FF0FF319962196A5A6010BD05238F
:10014000890143507047022389014350704700EBF7
:100150008111CA61704700EB81114A62704700EB60
:1001600081118A627047F0B5022487B00194082497
:10017000029420240394802404940C9C01AFE40B8B
:100180000594002457F82450B1FBF5F686424FEA57
:10019000164E04D3864505D90134052CF2D1002032
:1001A00007B0F0BD02B1156003B11C600120F7E794
:1001B0000A4BC0F8E4300023436043628362882323
:1001C0000360242303604FF4807303604FF4002323
:1001D00003604FF400330360704700BF0041535584
:1001E00038B5214B04469847002320480360002976
:1001F00038D08B68032B35D80B6802EB5302B2FB67
:10020000F3F24FF6FB73151F9D422BD82262CA688A
:100210004B6889681343164A43EA020505600329BF
:1002200010D8DFE801F00209151823F4803343F4F5
:10023000802343F4877304E023F4803323F4807332
:10024000134303606368026800201343636038BD92
:1002500043F4A023EDE723F4807343F4A02343F099
:100260000E03EEE7012038BDB10108002006002092
:100270000E000400402303607047102303607047A2
:10028000FEE7000008B5154A154B9A4219D1002126
:10029000144B154A93421DD3144B154A23F0604169
:1002A00021F07F0103F16043B3F5804F91603EBFC1
:1002B000936843F0005393600E4B98470E4B98475A
:1002C000FEE70E49043A8B42E1D252F8040F43F89C
:1002D000040BF8E743F8041BDCE700BF303C0800E0
:1002E0000000002004060020BC28002000000800B8
:1002F00000ED00E0393908008538080004060020C8
:1003000010B52B4A136B03F00303012B294B0FD0BD
:1003100004D3116ACC012CD5274946E02749496905
:1003200008064CBF4FF400414FF4FA4119600DE04C
:10033000116AC90101D52049F8E721491960116AFC
:1003400001F07001102912D02029F4D0116B01F0B6
:100350007001702905BF03211A68116BB2FBF1F21D
:100360001EBF1A68C1F30211CA401A6010BD1549B8
:10037000DCE713491960116A01F07001102913D0EC
:100380002029C9D0116B01F00301022901BF946A31
:100390001968C4F30A4404FB011109BF906A0A49B1
:1003A000C0B2B1FBF0F1C1E706491960EAE700BF4E
:1003B00000040E40E0000020001BB70010120E40A9
:1003C00000093D0000127A00001C4E0E0023094A6D
:1003D000094982F8003182F80131084A1370084A4D
:1003E00013701A4658185A500833802B8280F9D15E
:1003F000044B1847600C0020680D0020E90D002018
:10040000E80D0020C91D0800F0B5134B9BB09847BC
:10041000124F134DC4B22CB9124B1A68124B1A600A
:100420001BB0F0BD642C28BF642401AE21463046C9
:10043000B847002395F80121C0B2D11816F803E09F
:10044000C9B2013305F801E0D9B28C42F5D81444A1
:1004500085F801410446DEE721190800651B080004
:10046000600C002040280020640D0020F0B5C7B0CB
:10047000BFF35F8FEFF31185802383F31188234A45
:1004800092F8003192F801118B420BD084BFC3F572
:1004900080700918D05C98BFC91A692804D001334C
:1004A00082F8003100231FE00329FBD9981CC0B259
:1004B000145C201DC0B28842F4D1581E0844C0B25A
:1004C000105C9628EBD1002701A80144A3EB000E95
:1004D00000EB0E068842F6B213D104332344DBB29C
:1004E0000FB182F800310123BFF35F8F85F31188CC
:1004F0002BB101A8064B98472D20064B984747B0D3
:10050000F0BD965D012700F8016BE1E7600C00206B
:10051000150608000923080010B500201B4B98475A
:1005200010B91B4B1B787BBBBFF35F8FEFF31181BF
:10053000802383F31188174C174B22781B78934242
:1005400016BF164B002303EBC203BFF35F8F81F38B
:100550001188CBB19A8819680020114B9847BFF3D6
:100560005F8FEFF31182802383F3118823780133A7
:1005700003F00F032370BFF35F8F82F311881B20FA
:10058000BDE81040074B184710BD00BFCD1B080049
:100590004E060020E90D0020E80D0020680D002027
:1005A000E11B08000923080030B5BFF35F8FEFF3AC
:1005B0001184802383F31188084D094A2B7842F86F
:1005C000330002EBC302013303F00F0391802B7061
:1005D000BFF35F8F84F3118830BD00BFE80D0020AA
:1005E000680D002070470000004B18478511080077
:1005F0000149F020014B1847E905080001060800F1
:100600004F2882BF024B503843F82010704700BF7C
:10061000EC0D00204378034A503B52F8233003B1DD
:1006200018477047EC0D00207047000038B5C378BC
:100630000446012B0CD8074D074B2A7853F822307B
:100640009847E278054B53F822309847E3782B70AF
:1006500038BD00BF24060020AC100020B4100020DC
:1006600010B5084C44F820100749084C002A08BF70
:100670000A46002B08BF0B4644F82020044A42F8E3
:10068000203010BDBC10002029060800B410002046
:10069000AC10002008B50749E020074B9847074BEE
:1006A00007480849084A03600B60136043604B60C9
:1006B000536008BD2D060800010608002906080041
:1006C000AC100020B4100020BC100020004B1847D4
:1006D000590808007FB51C4C1C4E1D4B98471D4BFC
:1006E000162098471C4D03AB02AA214600943046C1
:1006F000A8471A4D039A284642F480420021184B1D
:100700009847029A2846B4FBF2F20021B2FBF6F2B7
:10071000144B9847102228460021134B984700217C
:100720002846124B98474FF48002114BC3F88020A3
:10073000BFF34F8FBFF36F8F0021C3F8802183F881
:1007400016131A6004B070BD00D8B805A086010069
:1007500039120800B52608006701080000000840AB
:10076000290108004F010800570108003F01080057
:1007700000E100E010B50A4C00212046094B9847E3
:10078000102200212046084B98474FF48002074B67
:10079000C3F88020BFF34F8FBFF36F8F10BD00BF32
:1007A00000000840470108005F01080000E100E088
:1007B00007B5044B1B6A0193019B034B984703B099
:1007C0005DF804FB00000840D512080010B4044C8A
:1007D000044BA446044A0549012010BC604700BFF1
:1007E0006106080075070800D5060800CD06080058
:1007F00070470000004B1847C11008007047000008
:1008000010B4044C044BA446044A0549002010BC13
:10081000604700BF61060800F1070800FD070800F7
:10082000F5070800F0B5002269240B251526962748
:10083000084800211318013120291C705D709E703A
:100840001F7603F11903F6D102F54872B2F5166F5F
:10085000EFD1F0BDC410002010B5084C2368002B68
:100860000ADB4FF448712068054B01FB0030054B53
:1008700098474FF0FF33236010BD00BFE400002015
:10088000C4100020A905080030B5154C85B0154BE3
:100890001920984720460021134B9847134A01AB73
:1008A00007CA83E8070019462046114B98470B23D7
:1008B000104900254B6064230B6119232046CB604F
:1008C0000D4B0D609847294620460C4B98474FF436
:1008D000F0124FF080510A480A4B984705B030BDDE
:1008E00000C00840B5260800F3280800943B080023
:1008F000C5270800241A002009280800E928080054
:10090000000E0E4009220800004B18478908080015
:1009100001498020014B1847090908000106080019
:100920000A4B1A4659698905FCD5D86100BF00BF3A
:1009300000BF53699905FCD500BF00BF00BF034B42
:100940005A69D207FCD59869C0B270470080094047
:100950002DE9F0414FF480460B4D0F466E6300BF0A
:1009600000BF00F00F00094C40F04000A0470020FD
:10097000A0473846A047064C0E20A0472E632346CA
:10098000BDE8F0410E201847000C0E402109080078
:10099000D500002010282FD022D8042828D00828DD
:1009A00028D002282ED10123B1F57A7F2CD8B1F5B9
:1009B000207F2BD8B1F5A07F2AD8A0292AD850298A
:1009C0002AD828292AD814292AD80A292AD8052930
:1009D00094BF0021012141EA03110320124B184763
:1009E00040280BD080280BD020280BD10523DBE733
:1009F0000223D9E70323D7E70423D5E70623D3E768
:100A00000723D1E70023CFE70921E4E70821E2E744
:100A10000721E0E70621DEE70521DCE70421DAE72C
:100A20000321D8E70221D6E751090800F7B51F4C8A
:100A300005460E460E204FF06051A0474FF0405142
:100A40001020A0471A490F20A0471A4C1A4B0F201C
:100A500098471A4A1A4920461A4B984720461A4B7B
:100A600098472046194B984704F59124184B04F5F4
:100A7000806400934FF4004250230A212046154F12
:100A8000B84720464FF40041134B98474FF480621B
:100A9000124B38211A600220114B984731462846E4
:100AA000104B03B0BDE8F040184700BF29230800F1
:100AB0000100002800800940B526080000B0710B35
:100AC000E8000020E1010800750208007B02080030
:100AD0004D0C0800BD2408009722080000E100E04A
:100AE0005109080095090800C00000F0380001F025
:100AF00007010143014B0020184700BF51090800BE
:100B00002DE9F0474FF480470F4E0546776300BF4D
:100B100000BF0E4C1220A047FF20A0478046FF20B8
:100B2000A0478146FF20A0478246094C0E20A047DF
:100B300037630E20A04785F800A085F8019085F85E
:100B40000280BDE8F08700BF000C0E4021090800BC
:100B5000D500002010B54168044689B200890C4BCD
:100B6000984700220B4B1A6018681968C0B201310F
:100B7000C9B2094B98474CF2503163680748B1FB42
:100B8000F3F1074B9847BDE810400648064B18475D
:100B90002D0A080034060020E90A0800AD0B080001
:100BA0005D110800DD0B08004111080038B5074B46
:100BB0001A6852B94FF48035054A064C126807206E
:100BC0001A602563044B9847656338BD38060020DA
:100BD00040280020000C0E40D500002010B5074C26
:100BE0002368002B09DBA8212068054B01FB00309E
:100BF000044B98474FF0FF33236010BDF8000020EE
:100C00004C1A0020A90508000F4B70B51A4669263A
:100C10000D251124962003F1A801167055709470CB
:100C2000107515328A42F8D169250D2411209621BC
:100C300083F8A85083F8A94083F8AA0083F8BC1071
:100C400015339A42F4D170BD4C1A00202DE9F84FAB
:100C5000BFF35F8FEFF31189802383F311882D4E4B
:100C60002D4D2E4CD6F800B0D5F800A02368DFF843
:100C7000C0802B4F53B9A82303FB0BF2152303FBB2
:100C80000A23D8F800103B44C3F80310A82000FB47
:100C90000BF2152000FB0A20236808305B1003EBE1
:100CA0004303184438441F4B98472368023323609A
:100CB0002368072BC4BF0023236020682168C0B2CB
:100CC0000131C9B2184B98470023C8F80030BFF370
:100CD0005F8F89F311882268CAB9A82303FB0BFB35
:100CE000152303FB0ABA2B68574401332B602B688A
:100CF000FA7103F007032B602A6842B931680B4B85
:100D0000196033680133012B3360C8BF3260BDE81E
:100D1000F88F00BF3C06002040060020340600206B
:100D20004C1A0020010B0800E90A0800F800002016
:100D30003806002001495220014B1847550B080086
:100D4000010608007047000001495220014B184776
:100D5000450D080001060800054AD06BC0B200BF6F
:100D600000BF00BFD36BDBB29842F6D1704700BF23
:100D7000000C0E4010B50446074B98474CF250311A
:100D800063680648B1FBF3F1054B9847BDE8104096
:100D90000448054B184700BFFD140800990E0800D1
:100DA0005D110800AD0D08004111080010B5084C98
:100DB0002368002B0ADB4FF448712068054B01FBC8
:100DC0000030054B98474FF0FF33236010BD00BF44
:100DD000FC0000209C1B0020A90508002DE9F84F0D
:100DE00001234FF480084FF4807B284D284F03FAED
:100DF00001F1C7F834808246C5F830B0696300BF9E
:100E000000BF00BF00BF00BF00BF00BF00BF00BFEA
:100E100000BF204EB047C7F83080814600BF00BFFA
:100E200000BF00BF00BF00BF00BF00BF00BF00BFCA
:100E3000B047C7F834800446C5F834B000BF00BFDF
:100E400000BF00BF00BF00BF00BF00BF00BF00BFAA
:100E5000B047C7F83080834600BF00BF00BF00BF67
:100E600000BF00BF00BF00BF00BF00BFB0472404E9
:100E70002963DAF8003044EA0B2420431A1D40EAC3
:100E80000960CAF800201860BDE8F88F000C0E4019
:100E9000000E0E40590D08002DE9F04F85B0BFF34C
:100EA0005F8FEFF31188802383F31188314F324C29
:100EB000324B3D68226818684FF448736B4319251C
:100EC0004FF4007B05FB02332D4904AE01EB03090F
:100ED00008330B442B4D46F8043D2B4BC9F8030057
:100EE0002A4AFF2128460193DFF8ACA09847C5F8AD
:100EF00034B00A213046D04700BF00BF00BF00BF5A
:100F000000BF00BF0A21C5F830B03046D04700BF4F
:100F100000BF0B21C5F834B03046D04700BF00BF3A
:100F200000BF00BF00BF00BF0B213046C5F830B086
:100F3000D047019B164AFF21284698472368013372
:100F40002360236803F01F032360BFF35F8F88F3E0
:100F500011880023226889F8073042B939680D4B9F
:100F600019603B680133032B3B60C8BF3A6005B092
:100F7000BDE8F08F440600204806002040280020ED
:100F80009C1B0020000C0E40ED23080002000028EE
:100F900001000028FC000020DD0D0800F0B5002253
:100FA00069241A25152696270848002113180131AF
:100FB00020291C705D709E701F7603F11903F6D115
:100FC00002F54872B2F5486FEFD1F0BD9C1B0020CE
:100FD00001497020014B1847750D080001060800F3
:100FE00070B50A20284CA0470B20A047274E284C5C
:100FF0004FF060511B20A0474FF060512D20A047BB
:10100000244B254AFF21304698474FF06051362047
:10101000A047224D4FF080724FF080512048A847E2
:101020000120204B984730211F4B012098471F4B30
:101030000120984730464FF480024FF00061A847E6
:1010400030464FF400024FF00061A8474FF00072A5
:1010500030464FF08051A8474FF040510C20A04738
:10106000134C41F6CA20A047124B0C20984741F67A
:10107000CA20A0470C20104B98472346BDE870407B
:1010800045F25C00184700BFB5260800000C0E4072
:1010900029230800ED230800010000280922080088
:1010A000000E0E4041270800FD2608002D270800ED
:1010B000D5000020D5220800EF220800704700006C
:1010C00038B50024034D55F8243001349847042CDA
:1010D000F9D138BD30280020F8B5154A136801331E
:1010E0001360144B1D7815BBBFF35F8FEFF31186B0
:1010F000802282F31188104C04F1300722683AB143
:10110000A368616801338B42A36001D19047A56059
:101110000C34BC42F2D10024084D55F8243001347F
:101120009847042CF9D1BFF35F8F86F31188F8BD7F
:101130004028002024060020482800201C280020E9
:10114000044A0549137841F82300581CC0B21070B6
:10115000704700BF44280020302800200C2270B5C2
:10116000064C074E23785A43B518B0500022581C3D
:10117000C0B26960AA60207070BD00BF2D28002039
:101180004828002000230D4A0D4913700D4A0E48CF
:1011900013700E4A13700E4A0A604A608A60CA6071
:1011A0000C490A604A608A60CA601A4619188A6047
:1011B0001A500C33302B4A60F8D170474428002075
:1011C000302800202C280020482800202D2800202E
:1011D000BD1008001C28002010B50024094B1C601D
:1011E000094B984740F27F72F021084B5A60084A39
:1011F00082F8231007219C601960102382F82330A5
:1012000010BD00BF402800208511080010E000E05C
:1012100000ED00E0054B10B505489847C30504D51F
:10122000BDE810400248034B184710BD05220800D6
:1012300000C00A400122080037B5114C4FF0605140
:101240001E20A0474FF060512320A0470D492420C5
:10125000A0474FF020510D20A0470B4C0B4B102204
:1012600000930B2150232046094DA847102120460A
:10127000084B98474FF40062074B1A6003B030BD2B
:101280002923080050000028000E0E40011308001A
:10129000BD2408009722080000E100E010B5084BCB
:1012A00004469847074B084898474CF2503163680A
:1012B0000648B1FBF3F1BDE81040054B184700BFED
:1012C000391208004111080059080800D512080019
:1012D0005D110800074B1A6852B94FF08041064A69
:1012E000516300BF00BF00BF1163044A12681A6057
:1012F000704700BF28060020000C0E404028002048
:101300002DE9F047BFF35F8FEFF31187802383F35D
:1013100011884FF448732E492E4A0E68146803FB57
:1013200006F5192303FB0453DFF8B8E02A48DEF87A
:1013300000C0C518C5F803C000258446CEF800508B
:101340004FF0080E08330344244DDFF89C9003F15E
:101350001008C5F834E000BF00BF00BF00BFD9F8D7
:101360003C00C5F830E000BF00BFC5F834E000BF66
:1013700000BF00BF00BFD9F83CA0C0B240EA0A20BD
:10138000C5F830E023F8020B4345E2D1BFF35F8F8D
:1013900087F311884FF448735E43192303FB0464F9
:1013A00000236444E371136801331360136803F08E
:1013B0001F031360126842B90868094B18600B6874
:1013C0000133022B0B60C8BF0A60BDE8F08700BF85
:1013D0002C06002030060020C4100020000E0E4015
:1013E000E400002028060020000C0E400149502097
:1013F000014B18479D120800010608004FF4804277
:101400000E4B10B55A6300BF00BF0D4A1146546918
:10141000A405FCD5040AD46100BF00BF4A69940545
:10142000FCD5C0B2C86100BF00BF05494A6992053A
:10143000FCD54FF480421A6300BF10BD000C0E4073
:101440000080094010B54FF060510A4C0A4B0E2045
:1014500098470A4B0F209847094A0A4920460A4BE9
:1014600098472046094B98472046BDE81040084B56
:10147000184700BF0080094029230800B52608004E
:1014800000B0710B00010020E101080075020800A6
:101490007B020800F8B5064600240B4F0B4D032CC9
:1014A0000CBF4FF440534FF4805336F8142007EA32
:1014B0008430C2F30B0200B21043184380B20134EF
:1014C000A847042CEBD1F8BD00C0FF3FFD13080076
:1014D00010B50446034B9847201D034BBDE8104050
:1014E000184700BF451408009514080001499020D2
:1014F000014B1847D11408000106080010B54FF041
:1015000060510B4C3620A0474FF060510820A04797
:101510004FF060510920A0474FF060510A20A047CA
:101520002346BDE810404FF060510B20184700BF24
:10153000292308000138062816D8DFE800F0040740
:10154000090C0E1013000020084B18470120FBE780
:101550000020074BF9E71020FBE72020F9E73E20A9
:10156000044BF2E7044B1847704700BF8D25080075
:10157000C92508000D2608003126080008B50728EF
:1015800005D8DFE800F01006060C0C0C0E0E00204B
:1015900008BD064B9847003018BF012008BD044B1A
:1015A000F8E7044BF6E7012008BD00BFAD250800B1
:1015B000FD2508004926080010B50620074B98476E
:1015C000074C0620A0470028FBD04FF47102054BC2
:1015D000054CDA61A0470028FCD010BD3515080085
:1015E0007D15080000040E40A526080070B51348BC
:1015F000134CA0470620134B9847134D0620A847CD
:101600000028FBD04FF08070104B9847104DA84732
:101610000028FCD00F4B98470F4A104B104D9A6290
:10162000A8470028FCD00F4B102098470E4B984736
:101630002346BDE870400148184700BF00D8B805F0
:1016400081000020351508007D1508006926080076
:101650005926080085260800013F0F2000040E408F
:1016600095260800492508000103080082B0EFF321
:101670001083B3FA83F35B09019372B6BFF35F8FF4
:101680000022024B1A70019802B07047DE00002061
:101690000023A1200D490E4A0B7013800D4A1070D3
:1016A00020205070022093805380D08013810A4AFA
:1016B0004FF4E13013715371082393710B7810606C
:1016C0000133DBB20B700120704700BF57060020CA
:1016D000E6080020780B002050060020024A13780C
:1016E000013BDBB21370704757060020044A1378A1
:1016F000013BDBB2137013780022024B1A70704763
:10170000580600204E060020002070470020704739
:101710007047000028B10122024B1A70BFF35F8F9F
:1017200062B67047DE000020124B1A7812F0800F6C
:1017300002F060020CD0202A1AD15A78212A17D13F
:10174000DA88072A14D10C499A81996001207047E0
:10175000202A0DD15878202804D0A0F12203584225
:1017600058417047DA88072A02D104491961EAE72B
:101770000020704780280020500600201117080024
:101780002DE9F04F374B85B01A780393002A5DD1CD
:10179000354DA847354F3C8818B3354B98478442A0
:1017A00054D0344B9847344B344E1C788346E4B2C3
:1017B00036F814209946DFF8DC80DFF8DCA0CAB9DF
:1017C000B8F800200132A8F80020A84758B9B8F8A6
:1017D0000020632A07D85846534605B0BDE8F04FAD
:1017E0001847274BDAE7A84720B1B8F80020B2F530
:1017F000487FF0D30022234BA8F800201B7843BB7E
:10180000B4FA84F35B0989F800300123039A58463F
:101810001370D04736F81430B3F5A07F14BF4FF0E3
:1018200001084FF000081AD0A847B0B1104B9847F4
:1018300038804FF4A071144A36F814300092134ADD
:10184000812001FB04224146114CA04705B0BDE8B0
:10185000F08FB4FA84F46409D7E7094BE7E7002373
:101860003B80E6E7740B002001330800720B002078
:101870004D3308006D160800700B00206C0B002023
:101880003D330800E8080020A5180800EC080020F7
:10189000313508004C06002015170800004B18478A
:1018A0008117080010B590B9094B0A4C1B78B3FAA0
:1018B00083F35B0924F81300074B1870074B18706B
:1018C00009B1074B9847BDE81040064B184710BDBB
:1018D000700B00206C0B0020E8080020740B002027
:1018E000E50508008117080010B5084B9847084B1C
:1018F000084A1988084B89B21B78DBB232F81340CA
:10190000064B9847A4B2601A10BD00BF6D160800C0
:10191000E2080020DC080020E0080020151708007D
:101920000020014B184700BFE918080008B5034B19
:101930009847003018BF012008BD00BFE918080013
:10194000F7B51C4B98471C4F1C4E3C7833788446A7
:10195000E4B203F0FF051A4953B9DFF880E0194BF0
:10196000BEF8002033F8143092B29BB29A4204D2EF
:1019700060468847002003B0F0BDB4FA84F35B09E9
:10198000AEF800503B7001233370884728460E4B59
:10199000984710B128460D4B98470D4B0D4A0093C0
:1019A0004FF4A073012103FB042202200A4CA0473C
:1019B000E1E700BF6D160800E0080020E408002001
:1019C00015170800DC0800202D190800090408007C
:1019D000651A08005C06002031350800E208002086
:1019E00038B50024124B134D2C701C70124B1C7018
:1019F000124B1C70124B1C805C80124B1C80124BD3
:101A00009847124B1C70124B1C70124B1C805C8050
:101A1000114B1C80114B984748B12B780133DBB236
:101A20002B702B78DBB2012B04BF0D4A137038BD2D
:101A3000740B002058060020E8080020700B0020DE
:101A40006C0B0020720B002081170800E4080020B6
:101A5000E0080020DC080020E2080020411908000E
:101A60004E06002013B5144680B90F4B1A78B2FA0F
:101A700082F2520961B90D4B0D4900934FF4A073E6
:101A8000204603FB02120B4C0121A04702B010BDFF
:101A9000094B89B223F81210084B1870084B02B09A
:101AA000BDE81040184700BFE0080020651A080094
:101AB0005C06002031350800DC080020E408002026
:101AC000411908002DE9F84F0E461546DFF88880C9
:101AD0001B4FDFF88890C0473988DFF884B01FFAC1
:101AE00081FA99F80010174BC9B23BF8114098479A
:101AF000A4B2A24506D3144B1B78002BEBD1284689
:101B0000BDE8F88F3BF811404FF4A073A4B2A4EBEA
:101B10000A04AC4228BF2C4603FB01A10B4B304604
:101B2000194422460A4B98473B882D1B23449BB2FD
:101B30003B80084B26449847002DCCD1DFE700BFFF
:101B4000E2080020151708004E0600205C06002061
:101B500089390800411908006D160800E0080020C6
:101B6000DC0800200A46024B01460020184700BF4F
:101B7000C51A08000F4B70B598470F4A0F491378E4
:101B8000DBB231F81310B1F5A07F0ED10C4C2478E4
:101B90005CB90C4C257805F0FF0635B90121B3FA84
:101BA00083F3217031465B091370074B9847C1F5E9
:101BB000A07070BD6D160800700B00206C0B00202B
:101BC000740B0020E80800201517080008B5034B27
:101BD0009847003018BF012008BD00BF751B0800E2
:101BE0002DE9F84F1B4B0E469B79DFF884B0092B8B
:101BF00008BF520014460020174B984730B9174BC6
:101C00001B78002BF7D12046BDE8F88F144B98477E
:101C10009BF80070DFF85C90FFB239F817804FF442
:101C2000A073C8F5A075A54228BF2546824603FBD0
:101C300007830C4831462A4618440B4B9847A84462
:101C400050460A4B29F817809847641B2E44D2D17E
:101C5000D9E700BF50060020CD1B08004E0600202B
:101C60006D160800EC0800208939080015170800D7
:101C7000700B00206C0B0020024B9878024B00F098
:101C80007F001847802800200533080070B5134BEB
:101C90001B780BB9002070BD114B1B681B681A79AB
:101CA0008242F7D900240F4A13605D881D449D428B
:101CB00003D8002CEED01360ECE75E78042E09D137
:101CC0009E78864206D1DE788E4203D104B113603D
:101CD000012070BD1C7823440124E8E78C0B002010
:101CE000900B0020940B0020084B1B681B685A883F
:101CF0001A4403781844904201D3002004E043784A
:101D0000042BFAD0052BF4D1704700BF900B0020B4
:101D10002DE9F0410E4B0546984768B10D4B0E4F2B
:101D20001C680E4E2046B847044640B18288C178F0
:101D30008078B0470028F5D10020BDE8F081084B3D
:101D40001B685B6853F82530BDE8F0411B681847F5
:101D50008D1C0800940B0020E91C0800ED350800DC
:101D6000900B00202DE9F0410021124C0546A047C0
:101D700018B900252846BDE8F0810F4B1B685B6849
:101D800053F82560F368984701462846A047054662
:101D90000028EED0094BDFF82C801C68084F204645
:101DA000C047044610B18078B847F8E77368984791
:101DB000E0E700BF8D1C0800900B0020940B002072
:101DC00069330800E91C0800004B18474D32080031
:101DD000F8B50A4C22784AB10025094E094F3368FC
:101DE000E8B21B6801351B79834204D80023064AF8
:101DF00023701380F8BDB847F1E700BF8C0B0020BB
:101E0000900B0020651D0800820B002038B50A4B9E
:101E10001B783BB10024094D2A6813681979E3B295
:101E2000994200D838BD526852F823301B6903B17B
:101E300098470134F0E700BF8C0B0020900B002086
:101E400000232DE9F0419D4CA38123616361237838
:101E50005AB2002A05DAE18819B900252846BDE8FA
:101E6000F08113F060011CD1002A80F2C580E58862
:101E7000BDB113F01F0340F087806378062B09D0B3
:101E8000082B7AD06BB9022D11D129468C488D4B85
:101E9000984752E063881D0A022D3BD02AD8012DB5
:101EA00032D0237803F01F03012B00F069812378DF
:101EB00003F01F03022BD0D1834B1B78002BCCD017
:101EC0000025824FDFF818823B68ECB21A6812795D
:101ED000A242C2D95B6853F82460F3689847014670
:101EE0002046C0470028B8D0B3689847013500287D
:101EF000EAD022E0032D22D00F2DD2D1744B986866
:101F00000028D4D0418802E0714B186801786D4BED
:101F100098470DE06E4ADBB21168497C9942C6D9F8
:101F2000526852F83300674B41889847A3685D7048
:101F3000E388A2899A4288BFA38101258EE7DBB29C
:101F4000032BAED8DFE813F0160041010400440172
:101F50000921604B604A1846164610F8015B22F8CA
:101F6000025FC51AEDB28D42F7D3490002313170DC
:101F70005948CCE704215948C9E7012D97D1294692
:101F80005148504B984769E7012B23D163780A2BBE
:101F900087D1012D40F0F4804B4B1B78002B00F0D3
:101FA000EF804A4B26791F683B681B79B34240F2A9
:101FB000E78030464A4B9847054600283FF471AF0A
:101FC0007B6853F82630DB689847464B0121187030
:101FD0001846D6E7022B7FF464AF6378002B7FF4BA
:101FE00060AF022D7FF463AF3F4B207998473F4BA2
:101FF0002946188018464AE713F01F0340F08080F6
:102000006378013B082B3FF64CAF01A252F823F056
:1020100043200800A31E0800A31E0800A31E0800FA
:1020200035200800A31E0800A31E0800A31E0800F8
:102030005F200800E388002B7FF439AF2C4B23612D
:102040007BE7E388002B7FF432AF6588012D7FF4B6
:102050002EAF1B4A138823F002031380FEE6E588A7
:10206000002D7FF424AF234B984700283FF419AF8D
:10207000174EA27833685B7C9A423FF712AF1E4B33
:102080009847A378104A1370002B3FF456AF0F4ABD
:102090007168164603F10053013B01EBC303174F70
:1020A00013603368E8B21B681B7983427FF645AF43
:1020B0000021B84701350028F3D1F2E6802800203E
:1020C000820B00205D3308008C0B0020900B002059
:1020D00038010020CD010020AC010020C00100200B
:1020E0008D1C0800880B0020B5330800840B0020ED
:1020F000791C08002D330800D11D0800111D0800AF
:10210000012B1AD163780B2B7FF4CBAEE388002B25
:1021100036D1314B1B78002B32D025792F4B2846F6
:102120006688984700283FF4BCAEF1B228462C4B95
:10213000984700287FF401AFB3E6022B7FF4B1AEDD
:102140006378012B10D0032B7FF4ABAEE388002B18
:102150007FF4ADAE6388002B7FF4A9AE2079214BCC
:1021600098472079204B09E0E388002B7FF49FAE4D
:102170006388002B7FF49BAE20791C4B9847D8E7EF
:10218000154B1B78002B3FF492AE194B25791E6836
:1021900033681B79AB427FF68AAE00212846154F83
:1021A000B84700283FF483AE736853F82560F3689E
:1021B000984701462846B84700283FF478AEB368F0
:1021C000984700287FF4B9AE71E608210A4BC1E6B2
:1021D00004210A4BBEE600BF8C0B0020651D0800E1
:1021E000111D080021380800E93308007D3408007B
:1021F000900B00208D1C0800C4010020A03B0800AB
:10220000006A7047C0697047B1F1805F426417D0BF
:1022100005D819B1B1F1006F0BD042607047B1F130
:10222000405FFBD0B1F1605FF8D0B1F1205FF4D135
:102230007047036F016F0B4023EA02030367ECE76B
:10224000036F1343FAE7D30741644CBF416601664D
:1022500012F00A0F14BF01624162930704D5C0F85F
:102260008010416101607047130748BFC0F88410B7
:10227000F7E710B5029C41643CB141663BB1016592
:102280003AB101630161016010BD0166F6E7416585
:10229000F6E74163F6E701647047C06C7047806CF5
:1022A0007047D3060ED59306C0F8B0104CBFC0F8E7
:1022B000D410C0F8D01053064CBFC0F8C010C0F8FE
:1022C000C4107047C0F8B41070470000004B1847A6
:1022D000A32208000122430903F5001303F2067349
:1022E00000F01F005B0202FA00F018637047012241
:1022F000430903F5001303F2067300F01F005B02AD
:1023000002FA00F058637047430900F01F020120F1
:1023100003F5001303F206735B02996B90400142D0
:1023200014BF586318637047F7B545090E4605F5A5
:10233000001501F0F04105F20675B1F1205F4FEA9A
:10234000452542D007D8B1F1006F1ED0B1F1805FB2
:102350002BD0002027E0B1F1405F02D0B1F1605FE7
:10236000F7D1012406F0605200F01F0102F148404D
:1023700006EA0403424200934241C6F38003284622
:1023800004FA01F1164DA84728E0012700F01F04C8
:1023900007FA04F428462246124B98473846F607B7
:1023A0004CBF6C662C6603B0F0BD00F01F0101202D
:1023B00000FA01F169642B6FF40743EA01032B670C
:1023C00069604CBF69662966EDE7012400F01F01D2
:1023D000324604FA01F12846034B98472046E2E7CB
:1023E00073220800092208004722080002F0F04387
:1023F000B3F1205F73B504460D4616462FD007D8BB
:10240000B3F1006F1AD0B3F1805F22D000201EE03C
:10241000B3F1405F02D0B3F1605FF7D106F06052D4
:1024200002F1484106F001034A4200934A41204626
:10243000C6F3800329460B4CA04707E00A4619461D
:10244000094B9847F0074CBF65662566012002B02E
:1024500070BD6164036F0B4303676160F2E7034B78
:102460009847F3E773220800092208004722080072
:10247000F8B50F4B04460E4698470E4B05462046CE
:102480009847054013D00C4C04F160072368B34211
:1024900008D16168294205D0E368304698476368EF
:1024A00025EA0305BC4202D01034002DEED1F8BD60
:1024B0009B2208009F220800980B00202DE9F8437A
:1024C000164E894634681146062CB44623D8002699
:1024D000134F5FFA86F8444510D2089A0134AB6076
:1024E000EA6044451A46C5F8009069600D4B08BF84
:1024F000CCF8008098470020BDE8F8834FEA081E1A
:1025000057F80E2007EB0E054A4502D16A688A4249
:10251000E3D00136DDE70120BDE8F883080C002098
:10252000980B0020CD2208000A210148014B1847D2
:10253000000C0E40712408000B210148014B184784
:10254000000E0E40712408000F4B1A6B22F070022F
:10255000104340F601021863996E08070CD51A6BF8
:1025600022F0030242F002021A6340F60102996E61
:10257000090705D500207047013AEDD101207047C9
:10258000013AF4D1FAE700BF00040E40054A0128E1
:1025900001BF936843F0254343F480139360024BDB
:1025A0001360704710120E40080000A5054B5869D3
:1025B00010F080001EBFA3F56163986EC0F3C010D9
:1025C000704700BF10120E400B4A116A41F45C11B3
:1025D00041F008011162936E9903FCD5136A23F44C
:1025E0005C1323F0700343F45C1318431062936E82
:1025F0009B03FCD5704700BF00040E40024B986E51
:1026000000F40030704700BF00040E40074A00028B
:10261000136A80B223F0030343F45C1343F0010315
:1026200003431362936EDB07FCD5704700040E4032
:10263000044A136A23F0030343F45C1343F00203D8
:102640001362704700040E40024B986E00F00100C8
:10265000704700BF00040E40024B986E00F48030BB
:10266000704700BF00040E40054A136A28B143F0CA
:10267000807343F45C131362704723F08073F8E7B0
:1026800000040E404FF00052014B9A62704700BFA9
:1026900000040E40024B986E00F00200704700BF2D
:1026A00000040E40024B986E00F04000704700BFDF
:1026B00000040E401D284FF0010309D8054A03FA13
:1026C00000F0916930EA010300D0106100207047EA
:1026D0001846704700040E401D284FF0010309D82A
:1026E000054A03FA00F0916930EA010300D1506114
:1026F000002070471846704700040E400A4B00F156
:10270000100241F0020143F822104FF4807202FAE5
:1027100000F040F60102996E014201D0002070479E
:10272000013AF8D10120704700040E404FF4807345
:1027300003FA00F0014B1860704700BF00040E4020
:102740004FF4807303FA00F0014B5860704700BFEC
:1027500000040E40034BC0F312001A6F10431867B9
:10276000704700BF00040E40024B187880F0010053
:10277000704700BF0C0C0020F0B5114D8DB001ACBE
:1027800006460F460FCD0FC40FCD0FC495E80700C6
:10279000002384E8070001AA52F82300B7FBF0F0F9
:1027A000B0FBF6F0B0F5807F06D901330B2BF3D1E7
:1027B0004FF6FF700DB0F0BD40EA0320FAE700BF0E
:1027C000A83B080070B50C6806460D4644B120468B
:1027D0000C4B896898474FF6FF73984204460CD01B
:1027E000686840B1074BA96898474FF6FF73984255
:1027F00005D044EA004434600024204670BD0446FD
:10280000FBE700BF792708004B688A8A03F00F03B3
:1028100013430A8970B513438A7A0C6843EA42234A
:102820008A7D43EA0243CA7D43EA42430A7E43EA81
:10283000824300EB4412C2F80032CB68C2F8043283
:102840000B69C2F80C328B7D1BB1D1F81A30C2F87B
:1028500018324FF00113A340DB43CA7F856C02FAA4
:1028600004F68A7F1D40A24042EA06422A4382645F
:10287000426C134091F8212002FA04F591F82020CF
:10288000A24042EA054213434364012391F8222007
:10289000A3402AB3026A1A43026291F82420012A53
:1028A000826E0CBF1A439A43826691F82520012A52
:1028B0004FEA0342836E06BF1A43826693434FF08A
:1028C000FF0218BF8366E300C46E9A4024EA020444
:1028D00091F8232002FA03F32343C366002070BD5E
:1028E000026A22EA0302D7E7012303FA01F14160F9
:1028F0007047012303FA01F18160704782B0EFF362
:102900001083B3FA83F35B09019372B6BFF35F8F51
:102910000022024B1A70019802B07047DE000020BE
:102920000522034B1A702022024BC3F81421704772
:10293000140C002000400A40024B1B6903B11847E9
:10294000704700BF8028002028B10122024B1A7076
:10295000BFF35F8F62B67047DE00002010B5074CF2
:102960000146235CFF2B00D1FEE7054B9847635CD3
:1029700001336354034BBDE810401847782800200A
:10298000FD2808004929080010B5074C0146235CC2
:1029900003B9FEE7054B9847635C013B6354044B66
:1029A000BDE81040184700BF78280020FD28080027
:1029B0004929080038B5074C0546237828B913B1D2
:1029C0000220054B9847257038BD002BFBD1022013
:1029D000024BF7E70E0C0020892908005D2908004A
:1029E00008B50A4B98474FF480630949C1F808318C
:1029F000084B98474FF40073C1F818310023064A7A
:102A0000136153619381054A137008BDFD280800C6
:102A100000400A404929080080280020140C0020AA
:102A200003220D4B10B51A700C4B98474FF480627F
:102A30004FF400610A4BC3F81821C3F81411C3F80E
:102A400004214FF40042C3F81821C3F80421BDE863
:102A50001040044B184700BF140C0020FD2808004C
:102A600000400A40492908002DE9F04737498847C6
:102A70004FF48062364B374EC3F80821B047364FCB
:102A800089463B78032B05D1344B9847BDE8F04786
:102A9000334B1847334A344D1388AC899046E41AB7
:102AA000A4B2FCB9314A11880B449BB21380EA8866
:102AB0009A4202D02E4B1B786BB104233B70C8475F
:102AC0004FF48042224BC3F81821C3F80421334647
:102AD000BDE8F04718476B694BB3984738B3A8F87F
:102AE0000040AC893F2C22D900224024204B1A7090
:102AF000A968B8F800A05144C847154B0546D3F85B
:102B00001C319B0517D41B4BDAB2A24218D34FF4E9
:102B100080624FF400610E4B5444A8F800402846F0
:102B2000C3F81821C3F81411C3F80421CFE7012218
:102B30000F4B1A70DCE7B04704233B70BDE8F08709
:102B400011F8012B03F8012BDEE700BFFD28080078
:102B500000400A4049290800140C002039290800C7
:102B6000E1290800100C002080280020120C002011
:102B70000D0C00200000182030B4037D0D46D9074D
:102B800012D504686FF3000303756CB102F10803FA
:102B900006495B01CB5881681B072846234630BC99
:102BA00048BF42F08002184730BC704700400A40DE
:102BB00018232DE9F047494E00F1FF3803FB086365
:102BC0001A7D8146D00740F18780DA6899684FEA1C
:102BD00049178A425AD007F1402303F52023891A66
:102BE000D3F80001B1F5803F92BF0D044FF480315E
:102BF000002510F0080FD3F8000135D0082300F0AD
:102C000007008340013B0B4208D0182303FB0863F5
:102C1000187D45F008056FF341001875182404FB72
:102C200008642F4B03EB091A63681344CAF8043095
:102C30002C4B9847DAF80C302B4A13F0100F22D1A6
:102C400045F02105CAF80850E36821610B44E360B0
:102C50004FF00073254903FA08F80C6948EA0404A8
:102C60000C61BDE8F0471047C0F30110012807D1FF
:102C7000D3F80001082300F0070083409942CDD823
:102C800045F01405CAE79047E368A36007F14023C5
:102C900003F52023D3F80021110714D5182202FBD5
:102CA0000862127D92070ED54FF40062C3F804212A
:102CB0004FF480720D4B02FA09F9196949EA0101D2
:102CC0001961BDE8F08718204A4600FB0860BDE89E
:102CD000F0470021064B1847BDE8F087180C00208C
:102CE00000430A40FD2808004929080000400A4026
:102CF000792B08002DE9F041A34B1D209847A34BE9
:102D00009847A34B50B95A6912F0020206D172B625
:102D1000BFF35F8F9F4B1A70BDE8F0815A691007AF
:102D200009D508229A615B69D90700F13082BDE8B4
:102D3000F041994B18475A69520702D504229A610B
:102D4000F5E7D3F81C215969CF0540F1F3814FF421
:102D50008041C3F808114FF40041D604C3F80811AC
:102D600053D58E4C23781BB18D4B98478D4B98478C
:102D70008749D1F81C31C3F30A53082B07D08A4B7B
:102D800098474FF48053C1F81831BDE8F081874B64
:102D9000874E884D884A13F8010B9919934248557C
:102DA000F9D1864B98474FF48056794928B97E4B24
:102DB0009847C1F81861BDE8F081C1F8186195F92C
:102DC0000030002B08DA00237D4A13807D4A1380EF
:102DD000022323707C4B02E0EB881BB97B4BBDE8E0
:102DE000F04118470023764A1380764A1380012366
:102DF00023704FF48044764BC1F818419847C1F8CE
:102E00000441744BBDE8F0411847550503D5D3F88C
:102E10000C315C05DED4900564D5604B1B78012B2A
:102E200009D0022B01D0042B03D15D4B98475D4B99
:102E3000D5E75D4BFAE7564B624CD3F81C115D4A5F
:102E40002388C1F30A5190895D18A8429568B8BFDC
:102E5000C11A03F1FF302844544DB8BF89B2EEB215
:102E60008E4218D30B449BB24029238005D1544D88
:102E7000D08829881944884217DC93815369444CCF
:102E800073B1984760B9484B98474FF40073C4F842
:102E90001831BDE8F08115F8016B00F8016FDEE72D
:102EA0004FF40073C4F8183198E79189994213D10F
:102EB0005369374E3BB93C4B98474FF40073C6F803
:102EC0001831BDE8F08198470028F4D02B8822887B
:102ED00013442B80002323804FF400732C49C1F846
:102EE000183186E712F4005F18BF4FF40051284BE9
:102EF00018BFC3F81811110412D54FF40042C3F8DB
:102F00001821D3F81C21520500F14181234A12787F
:102F1000032A40F03C812022C3F81421BDE8F0814F
:102F2000530440F107814FF48042194BC3F8182134
:102F3000D3F81C21970500F12A81184A1278012A3A
:102F40003FF44CAF042AE4E7DEF810300CFA06F048
:102F500003426DD073010EEB0307D7F80C1109057E
:102F60003ED5D7F81C1111F4006139D14FF400633C
:102F70001820C7F80831C7F81431174B00FB04308C
:102F8000BDE8F041154B1847B52608006927080031
:102F900000400A40DE0000200D1E0800140C002036
:102FA00039290800E129080021290800000018201B
:102FB000FFFFE7DF8028002008001820411E0800DE
:102FC000120C0020100C0020692A0800212A080099
:102FD000FD28080049290800180C0020792B08005A
:102FE0002B44D3F80C21570322D5D3F81C21C2F36C
:102FF0008142EAB94FF48021C3F80811296921EA16
:10300000000129611821634801FB0404217D62F35A
:1030100082012175D3F8082122F00202C3F80821A9
:103020002022C3F814214022C3F81821BDE8F08102
:103030000136042E40F08580574C656915F0100567
:1030400045D010230122A3611146544D5148A84791
:10305000022201215248A847032201215148A847D2
:10306000514B9847236823F07F032360236843F084
:1030700080032360D4F8003123F47F7323F003032B
:1030800043F04303C4F800310123C4F80431474B33
:1030900098474FF48053C4F804314FF40073C4F8D8
:1030A0000431236943F480732361414B9847414BBA
:1030B0009847236943F008032361236943F004031D
:1030C0002361236943F002032361BDE8F081236992
:1030D000990714D563699A0711D52023A361236941
:1030E0001D2023F002032361236943F020032361A1
:1030F0000223A361304B98472846304B44E0264CCE
:1031000063699B0643D52D4B012098470223A36199
:103110002023A361236923F020032361236943F063
:1031200002032361236943F008032361236943F009
:103130000403C9E7184D01264FF00078AE464FF45E
:10314000807C741E2B6908FA04F00342F2B23FF44B
:10315000FBAE6B6918423FF4F7AE194B03EB021359
:10316000D968CE0713D4296921EA00012961D968F9
:10317000090C07D01823074803FB0404E3685B1A13
:10318000E360A36010460F4BBDE8F0411847BDE86F
:10319000F08100BF180C002000400A40792B080085
:1031A000300C0020480C0020D11D0800FD2808002C
:1031B00049290800E1290800D9260800B529080096
:1031C00000430A40B12B080010B51A4B98471A4B20
:1031D000044601209847194B1D209847184B1D2085
:1031E0001A6842F400621A601A6822F400721A60C7
:1031F0001A6942F010021A611A6942F002021A6159
:103200001A6942F020021A611A6942F008021A6132
:1032100008229A6104229A6110229A6102229A611C
:1032200020229A61074B98472046BDE81040064B84
:10323000184700BFFD280800B5290800B52608007A
:1032400000400A40D92608004929080010B5214B42
:103250009847214B1D209847204B9847E021204A52
:10326000044613684FF4802043F4807313601D4BB1
:1032700083F81D134FF0005119601B4B197D01F0AD
:10328000FE016FF38201197593F82C1001F0FE0115
:103290006FF3820183F82C1093F8441001F0FE01C3
:1032A0006FF3820183F84410D2F8E03043F0030357
:1032B000C2F8E0300D4B984700220D4B03201A70E6
:1032C0000C4B98470C4B98472046BDE810400B4BE1
:1032D000184700BFB9150800B5260800FD280800EA
:1032E00000400A4000E100E0180C002055270800CB
:1032F0000E0C00205D290800C9310800492908008A
:1033000000207047084B00F07F001A6822F080020E
:103310001A601A6822F07F0202431A601A6842F0AB
:1033200080021A60704700BF00400A40024B1868D4
:1033300000F07F00704700BF00400A40024B586811
:10334000C0F3CA00704700BF00400A40024B5868F3
:1033500000F00700704700BF00400A40014B986032
:10336000998170478028002000F00F02032A10B5D1
:103370001AD80121530103F1402000F52020034613
:10338000C0F80811D0F80001541E20F0C000C3F8A6
:1033900000011820054B00FB0434054B20469847DC
:1033A000237D6FF38203237510BD00BF180C00202E
:1033B000792B080000F00F00430103F1402303F5CF
:1033C0002023D3F81C319B065FBF1822054B00F168
:1033D000FF3002FB00305ABF007DC0F380000120A7
:1033E000704700BF180C0020F0B500F00F04032C4C
:1033F0003ED8204D6301EF18D7F81C21960623D440
:1034000018261D49621E06FB0212167D16F00401E5
:103410001AD1F1072CD4010618D5D7F81C1111F4D4
:10342000402F13D002F1100346F004021A714FF43A
:10343000802204F1080305EB43135A604FF48073B4
:103440002A69A34013432B610120F0BD03F14023FF
:1034500003F52023D3F8082122F00202C3F8082143
:103460004FF40052C3F818212022C3F81421EBE7CF
:103470000020F0BD00400A40180C002000F00F00B2
:10348000032870B54DD81822274C451E02FB054174
:103490000A7D430112F0040214D04FF4802601F19A
:1034A0001002097D6FF382011171204AD118C1F811
:1034B00008614FF48076116906FA00F021EA0000F5
:1034C000106101221949C818D0F81C61B60624D52C
:1034D000D0F81C211944960441BF4FF40052C0F8A3
:1034E00018214022C0F81821202203F14023C1F8FE
:1034F000182103F52023D3F8042142F00202C3F877
:10350000042118226A43A318197DC80707D56FF351
:1035100000011975A358984701E0002AF1D1012054
:1035200070BD002070BD00BF180C002000400A4094
:103530002DE9F74F00F00F05032D17461E4625D83D
:103540006B0103F1402303F52023D3F80C0110F0A5
:10355000010040D0D3F81C0110F0200016D14FF02C
:1035600018096C1E09FB04F91C4B03EB090B9BF8B3
:1035700014A098461AF0040A2DD1194B98479BF8CD
:103580001430184A13F0010302D09047002022E0C3
:103590009BF814E001934EF0010E8BF814E0904775
:1035A000019BCBF80470CBF80C30CBF810300C9B9F
:1035B000CBF8086048F8093011B9B6FA86F1490924
:1035C000182303FB0484237D284661F341032375FC
:1035D000054B9847012003B0BDE8F08F180C002080
:1035E000FD28080049290800B12B08002DE9F04FFB
:1035F00000F00F04032C85B0844601D9002098E028
:10360000650105F1402303F52023D3F80C3113F0B5
:103610000103F3D101F00300022800F09780032892
:1036200000F08C80012840F0F380002C00F08E80A8
:10363000032C00F08B8002F4C050B0F5006F7BD0FB
:10364000B0F5805F0CBF0327012701264FF0020E63
:1036500022F4C05292B205F1402505F52025D5F897
:103660000001090120F47F7801F0300128F00308FF
:1036700048EA0100A2F580611CF0800F89B214BFF6
:103680004FF0080C4FF0000CB1F57C4F61D3082AC5
:1036900062D95200013AB2FA82F240EA8E10C2F1C7
:1036A0001C0240EA0C0006B13B0202431343C5F87A
:1036B0000031D5F80031002BA0DA012603224FF0AB
:1036C0000008C5F80461534D5301E818D0F80C11F7
:1036D000C90715D503F1402303F52023D3F80011C2
:1036E0005700C1F38111B940C0F8086141EA0808E8
:1036F000D3F800111FFA88F821F0C001C3F80011B7
:10370000013AD2B29442DFD918274FF00109424E54
:10371000039707FB0465620048FA02F212F0030205
:10372000E0B21BD10134E3B2032B05F11805F2D945
:10373000012005B0BDE8F08F022786E74FF0010EAB
:1037400012F4C0567FF45AAF374684E74FF0020EAA
:10375000F6E740F2FF729EE70F229CE7039B04F11D
:10376000FF3E03FB0E6A0AF1100C9CF8043003F0D4
:10377000010B6FF300038CF80430630103F1402365
:1037800003F52023D3F8001121F0C00141EA821291
:10379000C3F80021C3F80491D3F80021002A15DBF7
:1037A000DAF80030002B3FF429AF0834194A6401DD
:1037B000125912074FF0180202FB0E6648BF40F084
:1037C00080000246F1680120984717E7D3F80421EA
:1037D00042F00202C3F80421BBF1000FA2D055F859
:1037E0000C1C55F8082C55F8103C891A45F80C1C8F
:1037F00055F8142C9CF804E055F8187C5B1A0097D7
:103800000A44064FCEF34001B84700288AD1F5E6B6
:1038100018468EE700400A40180C00203135080099
:103820000021134B00F00F0203EB0213000610B44B
:10383000996014D418240F4B501E04FB0030012152
:103840000D4B10BC1847C3F81401D3F81C1189059F
:10385000FBD4D3F81C1111F4402FF4D1EAE7530143
:1038600003F1402303F520234FF40070F1E700BF7C
:1038700000430A40180C0020792B08004FF4004345
:103880004360704708B51D481D4B98471D4B98472E
:103890001D4B98471D4B98471D4B984701221D4BC8
:1038A0001A70BFF35F8F62B61B4C1B20A0472D2000
:1038B0001A4DA0471A481B4EA8471B20B0472D2081
:1038C000A0471748A8471B20A0472D20B047144801
:1038D000A8471B20B0472D20B0471148A8471B2000
:1038E000A0472D20A047104E104D114CB047A847BF
:1038F000104B1B7854F823309847F7E750120E40CE
:103900007D380800ED150800E10F0800CD03080020
:10391000D9110800DE000020D5220800D5000020C3
:10392000DCB10F00EF2208006D0408001905080043
:10393000BC1000202406002070B50F4E0F4D761BE2
:10394000B61018BF002405D0013455F8043B984741
:10395000A642F9D10A4E0B4D00F03EF9761BB61087
:1039600018BF002406D0013455F8043B9847A642FE
:10397000F9D170BD70BD00BFE43B0800E43B080016
:10398000203C0800E43B0800844641EA000313F0B1
:10399000030349D1403A23D30B6803604B6843606B
:1039A0008B688360CB68C3600B6903614B694361BB
:1039B0008B698361CB69C3610B6A03624B6A4362A3
:1039C0008B6A8362CB6AC3620B6B03634B6B43638B
:1039D0008B6B8363CB6BC36340304031403ADBD2A7
:1039E00030320BD30B6803604B6843608B68836095
:1039F000CB68C36010301031103AF3D20C3205D3CB
:103A000051F8043B40F8043B043AF9D2043208D0A0
:103A1000D2071CBF11F8013B00F8013B01D30B8812
:103A200003806046704700BF082A13D38B07B1D0CC
:103A300010F00303AED0C3F10403D21ADB071CBF9E
:103A400011F8013B00F8013BA4D331F8023B20F808
:103A5000023B9FE7043AD9D3013A11F8013B00F841
:103A6000013BF9D20B7803704B7843708B788370ED
:103A700060467047024B13B1024800F005B870472A
:103A800000000000953A0800002301461A46184637
:103A900000F01EB838B50A4C0A4D641BA4100AD0B9
:103AA00004F18043013B05EB8305013C55F80439E3
:103AB0009847002CF9D1BDE8384000F0B1B800BFFC
:103AC000303C08002C3C0800704700BF704700BF26
:103AD0002DE9F8432C4D0646286898460F46914636
:103AE000FFF7F2FF294B1C68D4F84831002B3ED079
:103AF0005A681F2A1CDC02F1010E76B1012103EB8A
:103B00008204C4F88890D3F8880191400843022EBB
:103B1000C3F88801C4F8088123D00232C3F804E056
:103B2000286843F82270FFF7D1FF0020BDE8F88332
:103B3000174B0BB34FF4C870AFF300800346D8B1F6
:103B40000020D4F848114FF0010E58601960024669
:103B5000C4F84831C3F88801C3F88C01002EDCD0CA
:103B6000CCE7D3F88C010143C3F88C11D5E704F5F9
:103B7000A673C4F84831BBE72868FFF7A7FF4FF0EA
:103B8000FF30BDE8F88300BF00060020D43B0800EA
:103B900000000000A086010000000000006CDC02B4
:103BA0003030303100000000010000000200000051
:103BB00004000000080000001000000020000000C9
:103BC0004000000080000000000100000002000032
:103BD00000040000D8010020F8B500BFF8BC08BC04
:103BE0009E467047753A0800E1000800F10508009C
:103BF00095060800CD070800010808002508080000
:103C000011090800090C0800350D0800490D0800CD
:103C10009D0F0800D10F0800ED130800ED140800F7
:103C2000F8B500BFF8BC08BC9E467047BD00080050
:103C30004FF48063184A1360C2F8003203F18043E6
:103C400003F560231A6AD20120D5144A1A629A6ECB
:103C5000D103FCD51A6B22F0030242F001021A6371
:103C60009A6E1207FCD50E4A9A629A6E9007FCD59E
:103C700011221A639A6E1107FCD512221A639A6EEA
:103C80001207FCD5074A084B1A607047074A1A62A8
:103C90009A6ED007FCD5D8E700080E400908370116
:103CA000013F0F2000D8B805E000002009083700C8
:103CB0000E4B0F4A98420F4B03D800211160196038
:103CC00070470D49884202D84FF48071F6E70B49DE
:103CD000884202D84FF40071F0E70949884294BF46
:103CE0004FF440714FF48061E8E700BFFF356E018B
:103CF00000080E40000A0E40FF596202FFA14A046C
:103D0000FFBC0105BFF35F8F0138FBD17047010095
:103D100000093D00FFFFFFFF40771B00C0000000CF
:103D20000100000000000000FFFFFFFFFFFFFFFF9A
:103D300080969800C0000000000000000000000015
:103D400091160800DD160800291708000D17080055
:103D500000000000E1190800ED160800091708002E
:103D60000D1708009D180800900100204401002054
:103D7000000000004C010020A401002009024300C3
:103D8000020100807D0904000001020201000524F7
:103D90000010010424020205240600010524010389
:103DA000010705830340001009040100020A000016
:103DB00000070581024000000705020240000000E4
:103DC0001201000202000040EB0304240001010282
:103DD0000301000010010020240100200003000066
:103DE00000000000000000000000000000000000D3
:103DF000040309044C69627265444151004C44411A
:103E0000512D42415345000000000000C404002031
:103E10002C05002094050020000000000000000098
:103E20000000000000000000000000000000000092
:103E30000000000000000000000000000000000082
:103E40000000000000000000000000000000000072
:103E50000000000000000000000000000000000062
:103E60000000000000000000000000000000000052
:103E70000000000000000000000000000000000042
:103E80000000000000000000000000000000000032
:103E90000000000000000000000000000000000022
:103EA0000000000000000000000000000000000012
:103EB00001000000000000000E33CDAB34126DE6AF
:103EC000ECDE05000B000000000000000000000018
:103ED00000000000000000000000000000000000E2
:103EE00000000000000000000000000000000000D2
:103EF00000000000000000000000000000000000C2
:103F000000000000000000000000000000000000B1
:0442300098280020AA
:0400000380000285F2
:00000001FF
